20111107-10:52:22.133: 8=FIX.4.4|9=100|35=A|34=1|49=XXX-MD|52=20111107-10:52:22.128|56=XXX-XUAT|98=0|108=30|141=Y|553=XXXmd|554=XXXmd1|10=146|
20111107-10:52:25.272: 8=FIX.4.4|9=77|35=A|52=20111107-10:52:25.926|49=XXX-XUAT|56=XXX-MD|34=1|141=Y|108=30|98=0|10=176|
20111107-10:52:25.273: 8=FIX.4.4|9=72|35=h|52=20111107-10:52:25.927|49=XXX-XUAT|56=XXX-MD|34=2|336=MD|340=2|10=000|
20111107-10:52:54.373: 8=FIX.4.4|9=130|35=V|34=3|49=XXX-MD|52=20111107-10:52:54.373|56=XXX-XUAT|262=EURUSD:0:0001|263=1|264=0|265=0|146=1|55=EUR/USD|267=2|269=0|269=1|10=192|
20111107-10:52:54.374: 8=FIX.4.4|9=130|35=V|34=4|49=XXX-MD|52=20111107-10:52:54.374|56=XXX-XUAT|262=GBPUSD:0:0002|263=1|264=0|265=0|146=1|55=GBP/USD|267=2|269=0|269=1|10=157|
20111107-10:52:54.688: 8=FIX.4.4|9=173|35=W|52=20111107-10:52:58.255|49=XXX-XUAT|56=XXX-MD|34=6|262=GBPUSD:0:0002|55=GBP/USD|268=2|269=0|270=1.6006|271=1000000|299=28019|269=1|270=1.60082|271=1000000|299=28020|10=207|
20111107-10:52:54.689: 8=FIX.4.4|9=174|35=W|52=20111107-10:52:58.256|49=XXX-XUAT|56=XXX-MD|34=7|262=EURUSD:0:0001|55=EUR/USD|268=2|269=0|270=1.37277|271=1000000|299=94520|269=1|270=1.37291|271=1000000|299=94521|10=068|
20111107-10:52:57.601: 8=FIX.4.4|9=156|35=D|34=580|49=XXX-MD|52=20111107-10:52:57.601|56=XXX-XUAT|11=524830|38=734316.83|40=2|44=1.36181|54=1|55=EUR/USD|59=4|60=20111107-10:52:57.601|117=64020|10=103|
20111107-10:52:57.868: 8=FIX.4.4|9=236|35=8|52=20111107-10:52:57.648|49=XXX-XUAT|56=XXX-TD|34=597|37=524830|11=524830|17=EURUSD_1542/62|150=F|39=2|40=2|54=1|55=EUR/USD|38=734316.83|44=1.36181|151=0|14=734316.83|6=1.36181|32=734316.83|31=1.36181|64=20111108|10=124|